:020000040000FA
:06000000BBEF01F012004D
:020006000000F8
:08000800D9CFE6FFE1CFD9FFDB
:10001000E652110EDF6EDF50DF0600090FE0DFCF82
:10002000E9FFEA6AE9BEEA68C00EE926000EEA22A4
:10003000EF50E66EC9EC01F0E552EDD7E552E5521E
:10004000E7CFD9FF1200D9CFE6FFE1CFD9FFE652C3
:10005000D650DF6ED66A1A0EDF5C02E2000E07D0C1
:100060004E0EDF5C02E2010E02D0020E00D0E5521D
:10007000E552E7CFD9FF1200D9CFE6FFE1CFD9FF94
:10008000E652540EE66E75EC01F0E5520C0EE66E8B
:10009000E66A3C0EE66EF6EC00F0E552E552E552FB
:1000A000110EE66EE66AE66AC00EE66E000EE66EB9
:1000B00091EC01F0026E050EE15E02500D0E0001A2
:1000C000C15D05E10A0EC05D02E19EDFE9D781A0B6
:1000D0000BD0DF5001E011D0010EDF6EB4DFE66E11
:1000E0003BEC01F0E55209D0DF5001E106D0DF6AB8
:1000F000AADFE66E59EC01F0E552E0D7E552E55291
:10010000E7CFD9FF12000001D890CC37CD37CE37DA
:10011000CF37CBBFCC81D890C837C937CA37CB3798
:10012000C7BFC881D890C437C537C637C737C3BF24
:10013000C481D890C037C137C237C3371200E3DF5C
:0E0140000001C0911200DFDF0001C08112003B
:02014E00060E9B
:10015000F66E000EF76E000EF86E00010900F55005
:10016000D66F0900F550D76F03E1D66701D03DD0B7
:100170000900F550D16F0900F550D26F0900F55014
:10018000D36F09000900F550E96E0900F550EA6ED9
:10019000090009000900F550D46F0900F550D56F2A
:1001A00009000900F6CFD8F0F7CFD9F0F8CFDAF090
:1001B000D1C0F6FFD2C0F7FFD3C0F8FF0001D4537F
:1001C00002E1D55307E00900F550EE6ED407F8E2DE
:1001D000D507F9D7D8C0F6FFD9C0F7FFDAC0F8FFC6
:0C01E0000001D607000ED75BBFD712004D
:0401EC00D9CFE6FF82
:1001F000DACFE6FFE1CFD9FFE2CFDAFFAC6AAB6A34
:10020000FD0EDBB0AC88DBA202D0AC8CAB8CDBB4D7
:10021000AC8EDBA602D0AB8801D0AB8ADBB8AC8455
:100220009E98DBBAAB86DBAC02D09D8A01D09D9A4A
:100230009E9ADBAE02D09D8801D09D98FB0EDB50CC
:10024000AF6EFB0EFC0EDBCF03F003C002F0036ABF
:100250000250B06EAC8AAB8E92949286AC50100B6A
:1002600004E0AC50800B01E19284E552E5CFDAFF67
:06027000E7CFD9FF1200E8
:0A027600D9CFE6FFE1CFD9FFFE0E5D
:10028000DB5013E0FE0EDB0609E10001DB5105E067
:10029000A3EC00F00001010EDB6F07D0DB0605E1E7
:1002A000A3EC00F00001010EDB6FE552E7CFD9FFB0
:1002B0001200D9CFE6FFE1CFD9FFFE0EDB5011E0EF
:1002C000FE0EDB0608E10001DB5104E19FEC00F0CB
:1002D0000001DB6B06D0DB0604E19FEC00F00001BF
:0A02E000DB6BE552E7CFD9FF1200F7
:0602EA00D9CFE6FFDACFD8
:1002F000E6FFE1CFD9FFE2CFDAFFFD0EDB507F0B47
:10030000D56ED76AD66AF294FD0EDBAE02D0F28AC1
:1003100001D0F29AD58EE552E5CFDAFFE7CFD9FFCB
:020320001200C9
:0E032200FE0EE3CFE9FFFF0EE3CFEAFFE9CFC7
:10033000F3FFEACFF4FFFB0EE35003E1FC0EE350C2
:1003400009E0FB0EE30602E2FC0EE306FD0EE350BD
:06035000EE6EF1D7120071
:0A035600000EF36E00EE00F0010E41
:1003600001D81200EA6002D0EE6AFCD7F350E960CF
:060370001200EE6AFCD74A
:0A03760010EE80F020EE80F0F86A2F
:10038000019CA7EC00F0D7EC01F03CEC00F0FBD7AF
:02039000120059
:0E039200FF0EE350ACBA04D0AF6AAB8EAC8A5B
:0E03A0009392ACA2FED7AD6EF36EF46A12001B
:0203AE0012003B
:00000001FF
