:020000040000FA
:0600000036EF01F01200D2
:020006000000F8
:08000800D9CFE6FFE1CFD9FFDB
:10001000030EE1268190936AD20EE66E0AEC01F09F
:10002000E55277D87DD87CD874D873D879D86E0E3D
:10003000E66EE6EC00F0E5526F0EE66EE6EC00F0E0
:10004000E5526E0EE66EE6EC00F0E552670EE66EE7
:10005000E6EC00F0E552720EE66EE6EC00F0E552DA
:10006000650EE66EE6EC00F0E552650EE66EE6EC37
:1000700000F0E552640EE66EE6EC00F0E552790E13
:10008000E66EE6EC00F0E5522E0EE66EE6EC00F0D1
:10009000E552720EE66EE6EC00F0E552750EE66E85
:1000A000E6EC00F0E5520D0EE66EE6EC00F0E552EF
:1000B0000A0EE66EE6EC00F0E55232D8F00EDF6E86
:1000C000490EF36E010EF3CFDBFF020EF36EF3CF9A
:1000D000DBFFDFCF00F0010EDBCF01F0020EDBCF44
:1000E00002F000500110021009E0D9CFE9FFDACF89
:1000F000EAFFEE06000EEE5AEE5AEBD792D7030E49
:10010000E15C02E2E16AE552E16EE552E7CFD9FF38
:100110001200F2A4FED7680ED65EF294818012001F
:0E012000F2A4FED7680ED65EF2948190120013
:02012E00060EBB
:10013000F66E000EF76E000EF86E00010900F55025
:10014000C56F0900F550C66F03E1C56701D03DD00A
:100150000900F550C06F0900F550C16F0900F55056
:10016000C26F09000900F550E96E0900F550EA6E0A
:10017000090009000900F550C36F0900F550C46F6C
:1001800009000900F6CFC7F0F7CFC8F0F8CFC9F0E3
:10019000C0C0F6FFC1C0F7FFC2C0F8FF0001C353E3
:1001A00002E1C45307E00900F550EE6EC307F8E220
:1001B000C407F9D7C7C0F6FFC8C0F7FFC9C0F8FF2A
:0C01C0000001C507000EC65BBFD712008F
:0401CC00D9CFE6FFA2
:1001D000E1CFD9FFE652080EDF6EDF50DF060009DF
:1001E00014E0FE0EDBAE05D090EC00F089EC00F0E0
:1001F00004D089EC00F090EC00F0FE0EDBCFF3FFB2
:10020000F39EF346F3CFDBFFE8D7E552E552E7CFA5
:04021000D9FF120000
:0C021400D9CFE6FFDACFE6FFE1CFD9FF3B
:10022000E2CFDAFFFD0EDB507F0BD56ED76AD66AC0
:10023000F294FD0EDBAE02D0F28A01D0F29AD58E96
:0C024000E552E5CFDAFFE7CFD9FF12004E
:04024C00000EF36E3F
:1002500000EE00F0010E01D81200EA6002D0EE6A52
:0C026000FCD7F350E9601200EE6AFCD7F6
:04026C0010EE80F020
:1002700020EE80F0F86A049C97EC00F044EC01F06A
:0802800004EC00F0FBD71200B2
:02028800120062
:00000001FF
